:020000040000FA
:10000000FF2383169000B0293C3083168500013011
:10001000831285000130A200A20B0C288501080084
:100020003C30831685000230831285000130A20027
:10003000A20B1828850108003A308316850001308C
:10004000831285000130A200A20B2428850108003C
:100050003A30831685000430831285000130A200F7
:10006000A20B3028850108002E3083168500013050
:10007000831285000130A200A20B3C2885010800F4
:100080002E30831685001030831285000130A200C7
:10009000A20B4828850108001E3083168500013018
:1000A000831285000130A200A20B542885010800AC
:1000B0001E30831685002030831285000130A20097
:1000C000A20B6028850108004F30A000C430A100B9
:1000D00008001F30A0004F30A10008005730A000DA
:1000E0000E30A1000800CF30A0000830A1000800A9
:1000F000C730A0000130A1000800A00B8028A10B90
:100100007D28080073200420A00B8728A10B8328DA
:1001100073201020A00B8D28A10B892873201C2090
:10012000A00B9328A10B8F2873202820A00B9928BF
:10013000A10B952873203420A00B9F28A10B9B288E
:1001400073204020A00BA528A10BA12873204C20D0
:10015000A00BAB28A10BA72873205820A00BB12817
:10016000A10BAD28080073205820A00BB828A10BC4
:10017000B42873204C20A00BBE28A10BBA287320F2
:100180004020A00BC428A10BC02873203420A00B52
:10019000CA28A10BC62873202820A00BD028A10BA9
:1001A000CC2873201C20A00BD628A10BD2287320AA
:1001B0001020A00BDC28A10BD82873200420A00B52
:1001C000E228A10BDE2808006E2028203420A00B96
:1001D000EA28A10BE5286E201C204020A00BF12866
:1001E000A10BEC286E2010204C20A00BF828A10BAE
:1001F000F3286E2004205820A00BFF28A10BFA281A
:100200006E2010204C20A00B0629A10B01296E2086
:100210001C204020A00B0D29A10B08296E202820AE
:100220003420A00B1429A10B0F29080073200420EF
:10023000A00B1B29A10B1729732004201020A00B51
:100240002229A10B1D297320042010201C20A00BA3
:100250002A29A10B24297320042010201C202820E7
:10026000A00B3329A10B2C297320042010201C2063
:1002700028203420A00B3D29A10B35297320042010
:1002800010201C20282034204020A00B4829A10B3E
:100290003F297320042010201C20282034204020D7
:1002A0004C20A00B5429A10B4A29732004201020B4
:1002B0001C202820342040204C205820A00B6129ED
:1002C000A10B562908007320042010201C20282090
:1002D000342040204C205820A00B6F29A10B64290A
:1002E0007320042010201C202820342040204C2083
:1002F000A00B7B29A10B71297320042010201C2046
:10030000282034204020A00B8629A10B7D297320B2
:10031000042010201C2028203420A00B9029A10BA1
:1003200088297320042010201C202820A00B992944
:10033000A10B92297320042010201C20A00BA129BE
:10034000A10B9B29732004201020A00BA829A10B2E
:10035000A32973200420A00BAE29A10BAA29080011
:0E036000822069207D20B32069207D20B029F5
:02036E00003459
:02037000003457
:02400E00A43FCD
:00000001FF
